:100000000C9468010C9485010C94A0010C9485015A
:100010000C9485010C9485010C942F160C94850189
:100020000C9485010C9485010C9485010C94850138
:100030000C9485010C9485010C940B160C9485018D
:100040000C9485010C9485010C9485010C94850118
:100050000C9485010C9485010C9485010C94850108
:100060000C9485010C948501000000000000000044
:100070000000000000000000000000000000000080
:100080000000000000000000000000007E0F00D40F
:10009000FFFFFFC700000078000000000000000024
:1000A0002A2B2800000000000000000000000000D3
:1000B00000000029000000002C1E342021222434DE
:1000C0002627252E362D3738271E1F2021222324B0
:1000D00025263333362E37381F0405060708090A4C
:1000E0000B0C0D0E0F101112131415161718191AE8
:1000F0001B1C1D2F3130232D350405060708090A66
:100100000B0C0D0E0F101112131415161718191AC7
:100110001B1C1D2F3130354C530054005500560028
:100120005F006000610057005C005D005E005700EA
:1001300059005A005B0058006200630063005800D9
:1001400005010902A10185020901A10005091901A2
:10015000290815002501950875018102050109305E
:1001600009311581257F95027508810609381581A9
:10017000257F950175088106050C0A380215812531
:100180007F950175088106C0C005010980A1018520
:100190000319012AB700150126B7009501751081D2
:1001A00000C0050C0901A101850419012AA002154E
:1001B0000126A002950175108100C00660FF09614B
:1001C000A1010962150026FF00952075088102092A
:1001D00063150026FF00952075089102C0050109EE
:1001E00006A101050719E029E71500250195087505
:1001F0000181029501750881030507190029FF1582
:100200000026FF00950675088100050819012905DB
:10021000150025019505750191029501750391035E
:10022000C01E03450078004E0075006D007000612F
:1002300000640020005600650072002E00320000AD
:10024000001C0341006E00640072006F00640069CE
:1002500000530074007500640069006F0000000422
:1002600003090409025B00030100A0320904000035
:1002700001030101000921010100012244000705D9
:1002800081030800010904010002030000000921A4
:10029000010100012222000705840308000107056F
:1002A0000403080001090402000103000000092101
:1002B00001010001227B00070583030800011201F0
:1002C00010010000000853414E45010001020001E9
:1002D00011241FBECFEFD8E0DEBFCDBF22E0ACE4DB
:1002E000B1E001C01D92AE3DB207E1F711E0A0E020
:1002F000B1E0EEE9F7E302C005900D92AC34B1072E
:10030000D9F70E9456160C94851B0C940000A82F58
:10031000B92F80E090E041E050EA609530E009C0FC
:100320002D9182279795879510F084279527305E29
:10033000C8F36F5FA8F30895EADF8D939D93089546
:10034000CF93CFB7CF93DF93C3954B9BE9F74B9BED
:1003500010C04B9B0EC04B9B0CC04B9B0AC04B9BD1
:1003600008C04B9B06C0C091B802C395C093B802A9
:100370008EC06F93C091B702DD27C454DD4F2F9319
:1003800065E54B9B03C02F916F91E1CF0F931F93B6
:100390004F9320E040E15F9309B10C7003FB27F914
:1003A0003F9350E03BE039C01C7040642F77012F31
:1003B0005F5F1EC0406819B11C702F7752501FC07C
:1003C000406409B12F770C70D1F15F5F00C023C08A
:1003D000406219B12F771C7091F15F5F00C025C09A
:1003E0000C701027515012F45D5F000011502795DA
:1003F0002C3F19B1C8F61C700127015027952C3FDE
:10040000C8F64227499309B10C7010274F73115059
:1004100027952C3FA8F64695469519B11C7079F0A2
:100420000127015027952C3F98F66B5A60F3315005
:1004300009B1B0F600C012E01CBB00271CC03B5045
:100440003195C31BD04012E01CBB0881033C21F155
:100450000B3411F12091B5021981110F1213EDCF58
:100460004A81441F093679F10D3211F0013E29F716
:100470004F7009F0042F0093BB023F915F914F91A1
:100480001F910F912F916F91CCB3C1FD5DCFDF9183
:10049000CF91CFBFCF9118952091BB02222369F352
:1004A0001091B902112309F049C034300AF448C050
:1004B0003093B9022093B6021091B7023BE0311B92
:1004C0003093B7023DC00091B9020130BCF50AE596
:1004D0004F7049F43091090134FD33C00093090194
:1004E000C2E9D2E032C0433059F0443091F030914B
:1004F0009D0234FD26C000939D02CEE9D2E025C0C6
:100500003091D20234FD1DC00093D202C3EDD2E07F
:100510001CC03091A90234FD14C00093A902CAEA9C
:10052000D2E013C0052710E000C000000BB91AC0CC
:10053000052710E0221F1DC010E021C04AE502C0BF
:1005400032ED432FC4E1D0E032E01AB11C605B9A77
:100550000BB11AB95CE020E865E320FF05270BB971
:10056000279517951C3FF0F66695B8F7B1F720FF71
:1005700005270BB9279517951C3FD0F6279517959A
:1005800017FF052700001C3F0BB9B0F629913A95DB
:1005900019F7037F1091BA02110FC651D0400BB961
:1005A00011F01093B50212E01CBB08601AB1137F62
:1005B000402F437F54E05A95F1F70BB91AB94BB964
:1005C0005CCF482F20918E029091550257E029135D
:1005D00002C080E0089530E0529FF001539FF00D7B
:1005E0001124EA5AFD4F8181681306C080814813A7
:1005F00003C085818111EECF2F5F3F4F2770E7CF7A
:10060000FC018381833089F130F48130F1F0823054
:1006100021F180E00895813209F446C08232C9F7A1
:10062000248135812130310509F45CC02115310563
:1006300009F450C02230310561F780E491E09093D5
:100640005402809353028BE708958EEB92E09093CF
:1006500054028093530282E1089583E692E09093DE
:100660005402809353028BE5089582818130A1F07A
:10067000882351F0823069F681E292E0909354022F
:10068000809353028EE108958FE592E09093540297
:100690008093530284E0089581E492E090935402A1
:1006A000809353028CE108958281813081F0882308
:1006B00031F0823009F0ADCF8EEA92E002C085E7DA
:1006C00092E0909354028093530289E008958EE85B
:1006D00092E0F7CF8DED91E0909354028093530216
:1006E00084E408952BEB31E03093540220935302BD
:1006F000089580914E02089588E198E00FB6F8942D
:10070000A895809360000FBE90936000A895F89420
:10071000D8E0CEEF28E3299320E0299314BEFFCF41
:1007200008959C014FB7F89480919D0190919E018E
:10073000A0919F01B091A0014FBF821B930B089520
:100740002FB7F89480919D0190919E01A0919F01F7
:10075000B091A0012FBF089580919C01882321F1C1
:1007600010929B0188E190E020E40FB6F894A895E0
:10077000809360000FBE2093600083B7817F846008
:1007800083BF83B7816083BF7894889583B78E7F5A
:1007900083BF0FB6F894A89580916000886180931C
:1007A0006000109260000FBE08959C01FC0132961B
:1007B0009FEF80E04191461751F09F3F19F441119E
:1007C00001C0982F8F5F8630A9F79F3F09F40895E5
:1007D000290F311D97FD3A95F90162830895A3E031
:1007E000B0E0E5EFF3E00C94EB1A20919901309121
:1007F0009A0128173907A1F090939A0180939901E3
:10080000E0919701F0919801309751F024E029830D
:100810009B838A830680F781E02DCE01019609959E
:100820002396E2E00C94071BA3E0B0E0EAE1F4E0D9
:100830000C94EB1A209195013091960128173907F5
:10084000A1F09093960180939501E0919701F0912A
:100850009801309751F023E029839B838A83068097
:10086000F781E02DCE01019609952396E2E00C94E4
:10087000071BE0919701F0919801309729F00190C2
:10088000F081E02D0995089580E008950E94A0036D
:100890009C019091910180919201982B21F03093CD
:1008A0008E0120938D019091930180919401982B5A
:1008B00021F030938C0120938B01E0919701F0910E
:1008C0009801309749F082E080938F010480F58190
:1008D000E02D8FE891E00995089580918A0180FDCF
:1008E00016C081FD16C082FD16C080918901882343
:1008F000A1F0883280F428E0829FC001112468E2D0
:1009000070E00E94BA1A862F672B39F0089582E0B2
:10091000089584E0089588E0089581E00895809125
:100920008A0180FD14C081FD14C082FD16C0809133
:100930008801882381F08E3180F420E5829FC001F8
:1009400011246EE170E00E94BA1A862F089584E1A6
:10095000089588E2089588E0089580E50895282F95
:1009600035EB2303C001112497FF04C0805891097F
:10097000892F089580589F4FFBCF80E00895F89409
:10098000E82FE295EF70F0E031A1282F2F7081E081
:1009900090E001C0880F2A95EAF7982F909593234D
:1009A00091A392A1892B82A37894089590917801C4
:1009B00092FF10C041E0282F2471243009F040E05C
:1009C00031E0282F2871283009F030E0431711F06A
:1009D0002CE0822793FF10C041E0282F247124319E
:1009E00009F040E031E0282F2871283109F030E08B
:1009F000431711F02CE082273091790130FF10C0AD
:100A000051E0282F2171213009F050E041E0282FDA
:100A10002871283009F040E0541711F029E08227AE
:100A200031FF10C041E0282F2171213109F040E051
:100A300031E0282F2871283109F030E0431711F0F8
:100A400029E0822794FD877E089582389105B9F1C7
:100A5000B0F48133910509F47DC048F489329105E1
:100A600009F46DC08A32910509F47BC0089585337D
:100A7000910509F45FC08933910509F10895833E1A
:100A80009105D9F138F4803E910529F1823E910516
:100A900079F10895863E9105D9F1873E910509F4D3
:100AA0003EC0843E910541F52091790121FF24C08B
:100AB0008091780184FD19C087EE90E0089520911F
:100AC0007801237009F05AC02091790123FF14C0E6
:100AD00089E290E008952091780120FD38C030919E
:100AE000790130FF09C024FF43C090E080E0089501
:100AF0002091780122FDF7CF08952091780122FD01
:100B00003AC03091790130FD39C024FFF5CFEDCFE7
:100B10002091780123FFF0CF24FDE7CFCDCF2091A6
:100B2000780123FD2EC03091790131FFEECF84EEA4
:100B300090E008952091780125FFDECFC9CF209164
:100B4000780125FD21C02091790123FFD5CF89E3CC
:100B500090E0D2CF2091780126FFCECF8AE290E0BC
:100B600008952091780126FFC7CF81E390E0089592
:100B700083EE90E0089582EE90E0089580EE90E09C
:100B8000089586EE90E0089585E390E008951F9320
:100B9000CF93DF930E942505EC01C11580E5D807AE
:100BA000F0F5C11580E4D80708F09CC0C03ED1051F
:100BB00020F5CD3CD10508F082C0C83AD10578F4C3
:100BC000C53AD10508F073C0C130D10519F120979D
:100BD00009F1C430D105F0F4D0E0C0E01BC0C33C43
:100BE000D105D0F7C85AD0E0CC0FDD1FC35FDE4F70
:100BF0000990D881C02DD4640DC0C11580E2D807FA
:100C000008F0D1C0C11581E0D80708F05AC0C83E2D
:100C1000D10510F7CE01DF91CF911F910895C03615
:100C200082E5D80718F5C03482E5D80708F06BC014
:100C3000C03282E5D80708F05FC0C11582E5D80749
:100C400008F497C02C2F2695269580E2289F9001C6
:100C500011248C2F8370C1E0D0E002C0CC0FDD1FC7
:100C60008A95E2F7C22BD32BDD68D4CFC03A82E558
:100C7000D80760F4C03882E5D80708F459C0CF71AE
:100C8000D0E0DC2FCC27C46FD06AC4CFC03C82E553
:100C9000D80708F462C0C03E82E5D80708F09CCFB0
:100CA000DC2FCC27CC27DF71C06FD06AB3CFC55AF9
:100CB000D0E0C65FDE4FC881D0E0D064ABCFD06556
:100CC000A9CF8D2F0E94D604182FCE0199270E94FC
:100CD0002505C12FD0E0DC2FCC27CC27DF71C82B16
:100CE000D92B98CFCE0199270E942505CC27DF70FC
:100CF000C82BD92BD06A8ECFCF71D0E0DC2FCC2778
:100D0000C16FD06A87CF2C2F26952695277080E259
:100D1000289F900111248C2F8370C1E0D0E002C085
:100D2000CC0FDD1F8A95E2F7C22BD32BDC6872CF84
:100D30002C2F26952695277080E2289F900111245C
:100D40008C2F8370C1E0D0E002C0CC0FDD1F8A95EC
:100D5000E2F7C22BD32BDA685DCF8C2F8F710E9404
:100D6000D604C82FD0E0DC2FCC27CC27DF71D0628F
:100D700051CF8C2F8F710E94D60455E0D695C79520
:100D80005A95E1F7CF70D0E0DC2FCC27282F30E048
:100D900084FF05C044E0220F331F4A95E1F7C22BC0
:100DA000D32BD06937CF8D2F8F710E94D604182F87
:100DB000CE0199270E942505C12FD0E0DC2FCC273A
:100DC000CC27DF71C82BD92BD2CF809590916B01A6
:100DD000982390936B01089580916B0190916A0123
:100DE000892B80934E0190916901992391F0892B71
:100DF00080934E0120E080E591E0FC013191CF012C
:100E000031112F5FF1E086359F07B9F7211110925C
:100E10006901E0919701F0919801309731F00280DB
:100E2000F381E02D8EE491E00995089580918E0282
:100E300090915502981301C008958F5F8770FACF83
:100E4000953080F5843070F544E0949F9001112432
:100E5000820F932F911D682F677023E096958795D9
:100E60002A95E1F7FC01EE0FFF1FE80FF91FE85A82
:100E7000FE4F50E040E080E0219130E0062E02C0BD
:100E8000369527950A94E2F721703327042E01C086
:100E9000220F0A94EAF7822B4F5F5F4F43305105D0
:100EA00059F7089580E00895953098F5843088F5D5
:100EB00044E0949F90011124820F932F911D282FBD
:100EC000277041E001C0440F2A95EAF723E0969588
:100ED00087952A95E1F7FC01EE0FFF1FE80FF91F38
:100EE000E85AFE4F90E080E070E05191DF011197E9
:100EF0009B01082E02C0369527950A94E2F72170CF
:100F000021952527242325272C93019683309105AD
:100F100061F708958093770108959091770121E01A
:100F200030E0F90101C0EE0F8A95EAF7D90102C05D
:100F3000AA0FBB1F6A95E2F7EA2B01C0220F4A9560
:100F4000EAF7892F8E23E81305C0292B822F0E94F0
:100F50008A07089520952923F9CF21E030E001C0C8
:100F6000220F8A95EAF720958091770182230E94CB
:100F70008A0708959091680180958923809368017C
:100F8000282F277069F4891759F09091790192FF01
:100F900007C08695869586950E94AD0710926801D8
:100FA000089521E030E001C0220F8A95EAF7809190
:100FB0007701822B0E948A07089580937601089515
:100FC000882321F00E94E5060E94EC0608958823FC
:100FD00039F090916B01982B90936B010E94EC0675
:100FE0000895662309F45DC08D3C41F40E948F048E
:100FF0008195809392010E94460408958E3C19F4D5
:101000000E948F04F6CF8F3C31F40E948F048195AB
:1010100080939101F0CF803D19F40E948F04F8CFA6
:10102000893D29F40E946D0480939301E4CF8A3DA9
:1010300021F40E946D048195F7CF8B3D31F40E941D
:101040006D04819580939401D6CF8C3D19F40E9454
:101050006D04F8CF9FE2980F983070F4815D990B82
:1010600021E030E001C0220F8A95EAF780919001DB
:10107000822B80939001BFCF8D3D31F480918A0106
:10108000816080938A01B7CF8E3D21F480918A01DF
:101090008260F7CF8F3D09F0AECF80918A018460E6
:1010A000F0CF409191018D3C59F48091920187FFDE
:1010B0000DC01092920141110BC01092880108C01E
:1010C0008E3C81F48091920118169CF3442381F0A8
:1010D0008091930190919401892B09F08CCF10920B
:1010E000890189CF8F3C49F447FFF0CF10929101DD
:1010F000809192018111ECCFE0CF803D19F414165C
:10110000ACF3E4CF90919301893D29F41916F4F6DC
:1011100010929301DBCF8A3D19F497FFD7CFF8CF18
:10112000909194018B3D29F497FFD0CF10929401B8
:10113000CDCF8C3D19F41916CCF3C8CF9FE2980F90
:10114000983090F4815D990B21E030E0B90102C044
:10115000660F771F8A95E2F7CB01809590919001F9
:10116000892380939001B2CF8D3D31F480918A0123
:101170008E7F80938A01AACF8E3D21F480918A01CF
:101180008D7FF7CF8F3D09F0A1CF80918A018B7FB2
:10119000F0CF8823D1F19CEF980F913A78F4E0E5F5
:1011A000F1E09191891303C0DF0111971C9291E046
:1011B000E635F907B1F70E94EC06089590E2980F22
:1011C000983050F4877091E001C0990F8A95EAF742
:1011D000892F0E94E506EFCF9BE5980F933028F406
:1011E00090E080E00E941404089598E5980F9B31E8
:1011F00028F490E080E00E94EF03089593E3980FB5
:10120000933118F460E00E94F1070895CF93C82F3E
:101210008823B1F08CEF8C0F813A00F5E0E5F1E026
:1012200086E591E0DF012D91C21761F08A179B07D7
:10123000D1F76C2F8EE491E00E94D5030E94EC065A
:10124000CF9108952191C21303C0DF0111971C9221
:101250008E179F07B9F70E94EC06EBCF80E28C0F48
:10126000883068F4C77021E030E001C0220FCA95D1
:10127000EAF780916B01822B80936B01DFCFEBE566
:10128000EC0FE33040F4F0E0E65FFE4F808190E049
:101290000E941404D5CFE8E5EC0FEB3150F4F0E0F8
:1012A000EE0FFF1FE35FFE4F808191810E94EF03ED
:1012B000C7CF83E38C0F833118F661E08C2F0E9437
:1012C000F107BECFCF93DF938091B902835087FDA2
:1012D00014C09091B702CCE0D0E0C91BD109C4542E
:1012E000DD4F9091B602903108F06BC0883009F460
:1012F00053C0109243021092B9028091090184FFF9
:101300003EC0809108018F3FD1F1C82F893008F08D
:10131000C8E0982F9C1B909308019091920228E8B6
:101320009227909392028823E9F080915302909142
:1013300054022091520226FF06C1FC012C2FA3E982
:10134000B2E034913D9331962150D9F79C012F5F43
:101350003F4F8FEF8C0F820F932F911D909354026C
:10136000809353026C2F83E992E00E949C01CC5F32
:10137000CC3019F08FEF80930801C093090184E10C
:1013800099B19C7031F48150D9F71092BA02109241
:10139000B502DF91CF91089580914302893108F021
:1013A000A8CFE82FF0E0ED5DFD4F9E01285F3F4F95
:1013B000999191932C173D07D9F7885F8093430249
:1013C0009ACF9D3209F0A3C0883009F094CF83EC06
:1013D000809392028AE580930901109252028881DB
:1013E000807609F447C0803229F58981813099F4EB
:1013F0008C819D81892BF1F485E492E090935402D5
:101400008093530288E09F81911131C09E8198178B
:1014100070F5892F2CC0823041F484E492E09093DF
:1014200054028093530281E0EECF8A3029F48B81FD
:101430008093440280E0E7CF8930E1F78A819B8185
:101440008115924069F48C819D81892B49F481E05A
:10145000809351028E819F819093500280934F021E
:10146000888187FF52C08E8190E8909352028093CA
:10147000080141CF2A8110929B02998191110AC0E3
:1014800010929C022BE932E082E0309354022093C8
:101490005302B9CF953029F42093BA022BE932E0F8
:1014A000F4CF9630C1F49B81913049F4CE010E9473
:1014B000000390E4909352028F3F91F2A4CF9230B8
:1014C000A9F3933099F3913289F3923279F390E44E
:1014D0009093520298CF983089F0993019F4209364
:1014E0004D02DCCF9A3071F09B30C1F69BE49093B3
:1014F0009E029093D3029093AA02D0CF2DE432E0C3
:1015000081E0C3CF2BE932E0FBCF8FEFADCF8091ED
:10151000520287FFF0CE80914F0290915002892BAA
:1015200071F080915102813051F4888180934E0294
:101530001092500210924F0210920801DCCE8EE100
:1015400080930901D8CEDC012C2FE3E9F2E03D9134
:1015500031932150E1F7FACE1F93CF93DF93E82F19
:10156000792F162FEA01888184FF1CC0298188E821
:1015700028272983CE010296DC012E2F372F512FE9
:101580005E0FF90121912D939F01452F4E1B1416DB
:10159000C4F3612F0E949C011C5F1883DF91CF91DF
:1015A0001F9108958AE58883E5CF2091D20224FF18
:1015B00005C042ED52E066E00E94AC0A0895209119
:1015C000D20224FF05C042ED52E063E00E94AC0A63
:1015D0000895CF93DF93CAE0D0E080919D0284FF0D
:1015E0001CC08091210290912202981799F028E066
:1015F000829FC00111244DE952E068E08F559E4F53
:101600000E94AC0A8091210290E001968F70992788
:1016100080932102DF91CF9108950E9462098FE9A2
:101620009FE00197F1F700C000002197B1F6F2CFDB
:10163000CF93DF93EC01A0912202B0E0CD0101969F
:101640008F70992720912102281779F093E0AA0F33
:10165000BB1F9A95E1F7AF55BE4F98E0FE01019090
:101660000D929A95E1F7809322020E9462090E94EE
:10167000E90A88E0FE01A5E4B2E001900D928A95A6
:10168000E1F7DF91CF9108951F93CF93DF93182F48
:10169000D0E0C0E0893311F4C0E5D0E0812F0E9492
:1016A0000609209739F4812F0E94C908DF91CF9154
:1016B0001F9108958FE99FE00197F1F700C00000A6
:1016C0002197EFCF0F931F93CF93DF93C62FD42F84
:1016D000022FFC0185818823A9F0609391020E946A
:1016E000A0039093900280938F02C77081E001C0A5
:1016F000880FCA95EAF70E94E707DF91CF911F9103
:101700000F91089580919102681332C080918F02E9
:10171000909190020E949103883C910548F510E257
:101720001D0FCD17B9F080E28C0F883040F4C770E0
:1017300081E001C0880FCA95EAF70E94E0071830DF
:1017400048F481E09D2F977001C0880F9A95EAF7C1
:101750000E94E707802F0E94440B183070F6D77064
:1017600081E001C0880FDA95EAF70E94E007C5CF53
:10177000C77081E001C0880FCA95EAF7F6CFCF9312
:10178000DF93C9ECD0E060E0CE010E94511B2196AE
:10179000C11584E0D807B9F7DF91CF9108951F9361
:1017A000CF93DF93122F8430E0F46530D0F44430CF
:1017B000C0F498E0699FE001112450E0440F551FE8
:1017C000C40FD51F98E2899FC00DD11D1124632F2E
:1017D000CE0189960E94511B612FCE018A960E94EC
:1017E000511BDF91CF911F910895B0E0A0E0EBEF86
:1017F000FBE00C94E51AD12CD0E0C0E01AC0402FD9
:1018000021E030E0D11008C0F801EE0FFF1FEE0D0F
:10181000FF1D859194919C016C2D8D2D0E94CF0B05
:101820000F5F1F4F0430110551F72196C530D105C8
:1018300071F0CE0123E0880F991F2A95E1F79C01F2
:10184000285E3E4F790110E000E0CC2ED8CFD39433
:1018500034E0D312D1CFCDB7DEB7E8E00C94011B52
:10186000CF93C82F6FEF811163E285E290E00E9471
:10187000511B6FEFC11169E086E290E00E94511B9D
:101880006FEFC11167E287E290E00E94511BCF9198
:10189000089580E00E94300C60E088E290E00E94B1
:1018A000511B0E94F50B0E94BF0B81E00E94300C7F
:1018B00008950F931F93CF93DF93843030F56530F5
:1018C00020F5443010F528E0629F8001112450E09B
:1018D000440F551F040F151F38E2839F000D111D83
:1018E0001124C80189960E94331BC82FD0E0DC2F39
:1018F000CC27C8018A960E94331B9E01282BC90160
:10190000DF91CF911F910F91089590E080E0F8CF83
:10191000462F753040F4643030F4843020F4672F63
:101920000E94590C089590E080E00895CF92DF92D4
:10193000FF920F931F93CF93DF936C010091770178
:1019400080917601082BC3E0D0E010E0FC2EC801A6
:101950000C2E02C0959587950A94E2F780FD0CC085
:101960002197A0F7F12C8F2DDF91CF911F910F912F
:10197000FF90DF90CF900895B6018C2F0E94880CC5
:101980000E94C705019761F3EECFCF93DF93EC017F
:101990000E94960CBE010E94880C0E94C705DF9130
:1019A000CF910895FC0124812223C1F0808191818F
:1019B0000E94C50C92959F70963091F058F4925FFA
:1019C0009F70923058F4803F19F030F4883E30F424
:1019D00081E008959A5FF4CF843FD1F380E00895C9
:1019E000883EB0F3813FD1F7F3CFA6E0B0E0EBEF54
:1019F000FCE00C94EA1A49835A8349815A8199235D
:101A0000A1F0222391F0CA010E94960C182F682F92
:101A100089819A810E94540769817A81812F0E946D
:101A2000880C2696E3E00C94061BCA010E9420074E
:101A3000182FF2CF85E290E00E94331B833289F4A5
:101A400086E290E00E94331B893059F487E290E0EF
:101A50000E94331B91E0873209F090E0892F81705A
:101A6000089580E0FCCF9091790192FB222720F924
:101A7000281779F080FB92F99093790160917801B1
:101A80007091790184E090E00E946F1B82E00E94D7
:101A9000BA070895CF9310926B01C6E0E0E5F1E03C
:101AA000DF018C2F1D928A95E9F790E080E00E947B
:101AB000140490E080E00E94EF0310926A010E94FB
:101AC000EC06EFE8F1E0DF011D92CA95E9F710920C
:101AD00088011092890110928A010E944604CF91D8
:101AE00008950E944A0D2FEF84E39CE0215080402E
:101AF0009040E1F700C0000088E198E00FB6F8944C
:101B0000A895809360000FBE90936000FFCFA8E07F
:101B1000B0E0EDE8FDE00C94DD1A8C01DC011496D8
:101B20008C911497882309F4B7C021E04C91119649
:101B30005C91119712966C91129713967C91139762
:101B400015969C910E94F50C7C01F80185818823F3
:101B500009F43BC1C70197578038910508F00CC5BF
:101B6000FFE0FE1508F488C08FEF93E00E94331B5E
:101B7000811182C069ECA62EB12CE11047C0FE0194
:101B8000339686E0DF011D928A95E9F75AE0452EEB
:101B90007501BFEFEB1AFB0AC5010E94331B898355
:101BA0001A82882309F468C0813009F079C0650180
:101BB000E2E0CE0ED11CC7010E94331B8A8388232A
:101BC00009F45AC09FEF980F933070F5F3E0AF0E11
:101BD000B11CC6010E94331B8B83882309F44CC0BF
:101BE0001C82DE0111967D01F7012081222381F202
:101BF000213009F095C091818281913009F052C065
:101C0000F2E0EF0EF11C0E94440B53C0A11424E03B
:101C1000B20691F1C5010E94331B811101C0EA9403
:101C20003FEFA31AB30AA9CF56018430D1F642E0A0
:101C3000E42EF12C56012FEFA21AB20AC6010E941F
:101C4000331BE1E0F0E0EC0FFD1FEE0DFF1D808384
:101C5000882391F08C3741F4E2E0F0E0EC0FFD1FB7
:101C6000EE0DFF1D1082BDCF3FEFE31AF30A6501B1
:101C700087E0E816F104F1F680916801877061F061
:101C8000D80115968C91882339F08091790182FFD3
:101C900003C082E00E94BA072896E0E10C94F91A8A
:101CA00057019FCF923049F422E0E20EF11C0E94CE
:101CB0000609EFEFEE1AFE0A97CF933031F432E0C7
:101CC000E30EF11C0E94C908F4CF943021F08FEF8D
:101CD000E81AF80AEECF92E0E90EF11C30E020E0BD
:101CE000B7016F5F7F4FD70111964C918053990BCD
:101CF0008A30910550F021503109D8F2EFE9FFE028
:101D00003197F1F700C00000F6CF429EF001439EEC
:101D1000F00D11249C012E0F3F1F842F7B01E0CF7B
:101D2000E22FF0E0E856FF4F5490822F869586957B
:101D3000869590E0FC01E857FF4F64902770712C66
:101D4000022E02C0759467940A94E2F731E0632290
:101D50007724FC01E858FF4F8490912C022E02C09A
:101D6000959487940A94E2F7A1E08A229924FC01D1
:101D7000E859FF4FC490D12C02C0D594C7942A953E
:101D8000E2F7B1E0CB22DD246114710419F081EE99
:101D90000E9406098114910419F086EE0E9406093A
:101DA000852D0E94440B8114910419F086EE0E9447
:101DB000C9086114710419F081EE0E94C908C114A8
:101DC000D10409F476CF8CE21ECFF701E851FC472D
:101DD000E730F10508F0B8C3E957F44E0C94CE1A79
:101DE00026E241EE61EEC8010E94620B45CF27E278
:101DF00045EE65EEF8CF26E241EE60EEF4CF27E245
:101E000045EE64EEF0CF26E241EE62EEECCF27E243
:101E100045EE66EEE8CF28E241E0EBCF8091780115
:101E200081608093780195C080917901886080936A
:101E300079018FC0809178018260F3CF8091780121
:101E40008460EFCF809178018860EBCF8091790139
:101E50008160EDCF809179018260E9CF8091780136
:101E60008061DFCF809178018062DBCF8091780143
:101E70008064D7CF0E944A0D809178018068D1CFCD
:101E8000809178018C60CDCF809179018360CFCF34
:101E9000809178018E7FC5CF80917901877FC7CFF0
:101EA000809178018D7FBDCF809178018B7FB9CFF4
:101EB00080917801877FB5CF809179018E7FB7CFF0
:101EC000809179018D7FB3CF809178018F7EA9CFEA
:101ED000809178018F7DA5CF809178018F7BA1CFF4
:101EE0000E944A0D809178018F779BCF8091780175
:101EF000837F97CF809179018C7F99CF80917801F2
:101F000082FB992790F921E0922790FB82F990FBC0
:101F100083F987CF80917901982F909591708E7F6A
:101F2000892B90FB81F983CF90917801892F8F7B4A
:101F300096FF806476CF0E944A0D90917801892F98
:101F400097FB87F980586DCF61E08EE090E00E94AA
:101F5000511B609178017091790184E090E00E94BA
:101F60006F1B0E944A0D88CE60E0EFCF9091780100
:101F7000892F8F7E94FF806154CF90917801892FB3
:101F80008E7F90FF81604DCF90917901892F877F5F
:101F900093FF88604CCF85E3E1C2F7E7EF16FCE7DB
:101FA000FF0609F46AC028E7E2162CE7F20609F4F6
:101FB00071C033E0E3163CE7F30609F48DC008F086
:101FC0006BC0E1149CE7F90609F478C0A1E0EA16B9
:101FD000ACE7FA0609F486C0F8018581E080F1805B
:101FE000882309F48DC0C7010E94960CD82E682F53
:101FF000C7010E945407B7018D2D0E94880C0E94D2
:10200000C7057C01882ED8011596AC9015971696B9
:102010009C9092943FE09322809168018770F1F048
:10202000DA2CAA20E1F08F2D807F803451F080E2FD
:102030008E0D883098F0911004C08F2D807E8032F4
:1020400069F08091790182FF09C082E00E94BA079D
:10205000809168018770DD24D3948111D12CCF2C1D
:10206000C2942FE0C222BBE0BC1508F4B1C0EC2D35
:10207000F0E0E257F44E0C94CE1A81E00E94D107B2
:1020800043E062E081E00E948D07F6CD81E00E948E
:10209000AD07F6CF82E0F2CFBBE5EB16BCE7FB065F
:1020A00069F1ECE5EE16ECE7FE06F1F0FAE5EF1665
:1020B000FCE7FF0609F090CF81E01DC00E944A0DA9
:1020C0002FEF34E38CE0215030408040E1F700C036
:1020D00000000E947C03D0CD6FEF7FEF90E080E0A6
:1020E0000E946F1B0E94710D8091790182FB8827ED
:1020F00080F991E089270E94330D6ECF80E0FBCFFD
:10210000C7010E942007D82E76CFEF2DEF70BE2E8C
:102110008F2D807F19F0B29490EFB922AA20B9F0E8
:10212000BB2069F080E28E0D883010F0811009C06C
:1021300080916B01B82AB0926B010E94EC068E2D43
:1021400045C080916A01B82AB0926A01F6CF8E2DFF
:102150000E94C908BB20E1F180E28E0D883010F0AA
:10216000811004C08B2D0E94E50606C0B0948091BA
:102170006A01B822B0926A010E94EC0629C0FF2DC4
:10218000FF70BF2E8F2D807F803219F0B29480EFC8
:10219000B822882059F021E0821609F482C0AA20D2
:1021A00009F48EC0992009F44FC0C9CF80917901FC
:1021B00082FD46C0AA20F1F1BB2039F080916B016D
:1021C0008B2980936B010E94EC0680E00E94060937
:1021D000AC2DA850BB0B149710F40E943904DD20DD
:1021E000A9F08091680180FD11C0F80115828695E3
:1021F000869586950E94D107C8010E94870D80911F
:1022000068018695869586950E94AD0720E0D801E5
:102210004C9111965C91119712966C9112971396AE
:102220007C91139714968C91149715969C910E940B
:10223000F50C32CD80E00E94C908BB2049F292CF54
:10224000AA20A1F0911004C08B2D0E94E707C0CFF7
:1022500031E09312BDCF809169019B2D9823B9166F
:1022600009F4B6CF8B2980936901B2CF9110B0CF1A
:102270008B2D0E94E007909169018B2D892329F015
:102280008B2D8095892380936901909157018B2D27
:10229000892309F49DCF8B2D809589238093570145
:1022A00097CFAA2029F085E0891508F491CFCCCFEB
:1022B00094E0991508F48CCF8B2D0E94E00788CF0D
:1022C0009920D1F3A9E38A1209C0BFEFE7EEF3E04A
:1022D000B150E040F040E1F700C000008E2D0E94B8
:1022E000C90876CF8F2D86958695837061F08130F1
:1022F00009F06ECFC7019370A11002C080E090E09A
:102300000E94EF0365CFC7019370A11002C080E067
:1023100090E00E9414045CCF6A2D8E2D0E94F1077C
:1023200057CF8F2D837091F5A11052CF4E2D42952E
:1023300046954770440F440F8E2D8F70042E01C0B8
:10234000880F0A94EAF72E2D2071E4FE07C02FE0D3
:1023500030E001C0220F4A95EAF720953F2D3695CF
:1023600036953370323069F050F440917601313057
:1023700029F0822B84230E94DD072ACF842B822B15
:10238000FACF282B809176018227F5CF8695AA2057
:1023900011F08F2D8170882309F41ACF4E2D4295AC
:1023A00046954770440F440F8E2D8F70042E01C048
:1023B000880F0A94EAF72E2D2071E4FE07C02FE063
:1023C00030E001C0220F4A95EAF720953F2D36955F
:1023D00036953370323069F050F4409177013130E6
:1023E00029F0822B84230E948A07F2CE842B822B31
:1023F000FACF282B809177018227F5CF2F2D2F70D0
:10240000F22EAA2029F0822F0E94D1078E2D1DCFF7
:102410008E2D0E94E0078F2D0E94AD07D9CE8E2D04
:1024200032EF8316B1F1381570F090EF8916D1F0C4
:10243000A1EF8A1691F0AA2009F45EC091107FCE18
:102440008F2D8F712AC0B3EF8B1651F1E4EF8E12EE
:10245000F2CF8091790182FD2FC08F2D8F71AA203C
:10246000D9F21BC0AA2081F0F4E0F91508F4B0CE2F
:102470002F2D2F7181E090E001C0880F2A95EAF797
:10248000909177018927AFCF25E0291508F4A0CED8
:10249000EFCF8F2D8F71A110BFCF0E94D10798CEA3
:1024A00080E0AA2009F49FCF9F2D9F7181E001C099
:1024B000880F9A95EAF797CFAA2099F03F2D3F71A0
:1024C000F32E832F0E94D1078091790182FF07C0EC
:1024D000A8E0FA9EC00111248360809368018F2DCB
:1024E000DCCF81E00E94BA07B1E0B91508F070CEE8
:1024F00082E00E94BA076CCE992059F0893309F026
:10250000EDCEEFEFF7EE23E0E150F0402040E1F7B1
:10251000E3CE8F2D8F7180CFB6E1EB16BCE7FB06C3
:1025200009F03BCD80916B018A7A91E009F490E04B
:102530009093560169E2811165E38EE491E00E9477
:10254000D5030E94EC0698CBE6E1EE16ECE7FE061A
:10255000A1F58091560181111ECD89E2E0E5F1E0FF
:1025600026E531E09191891303C0DF0111971C9298
:102570002E173F07B9F7E5CFF701E851FC47E730E1
:10258000F10508F429CC10929102C7019057839766
:1025900008F0C2CF84E090E00E943B1B9093790149
:1025A00080937801F701E150F047E232F10508F03D
:1025B00035CCE656F44E0C94CE1AF7E7EF16FCE74E
:1025C000FF0609F463CD82E028E7E2162CE7F20665
:1025D00009F45DCD01CDCF93DF9380916701807FBA
:1025E00009F04DC080916601882309F448C0E0914C
:1025F0008E0250915502C0916201D09161016091AB
:1026000063017091640147E05E17C9F18E2F90E07D
:10261000E49FF0011124EA5AFD4F2481222391F115
:10262000489FF001499FF00D1124DF01AA5ABD4FC8
:1026300011962C9111972C1325C02C912D1322C08B
:1026400015962C91159721111DC012962D913C9134
:10265000261B370B283C3105A8F4809167018F7049
:10266000806180936701E45AFD4F80818F708061A3
:10267000808381E691E00E94870D0E941607DF911A
:10268000CF910895FC013196E770BECFA4E1B0E090
:10269000ECE4F3E10C94E11A8C0186E0F801DE0130
:1026A0001F9601900D928A95E1F7F8018481E580EB
:1026B00091E6A92E91E0B92E90916501911128C063
:1026C000882319F1EE20F1F0C8010E94D20CF82EF7
:1026D0008823C1F087E0F801D50101900D928A9519
:1026E000E1F780916501813031F480916101909131
:1026F00062010E94C50C0E94EB128F2D6496ECE0E3
:102700000C94FD1AC8010E94870DFF24F394F5CFA5
:10271000D080C18082809380F09066012091630117
:1027200030916401A401421B530BFF2009F4D9C06E
:10273000483C510508F092C08823F9F2909162015B
:1027400080916701282F207F09F056C0C91214C05C
:1027500090916101D91210C0E11048C08F70806162
:102760008093670181E691E00E94870D8091670167
:10277000F8018683F12CC1CFE11038C06C2D8D2D6E
:102780000E94E1026C2D8D2D0E94E102E82E811144
:10279000F1CFDF86C88A8F8598890E94C50C292FC2
:1027A00022952F70243058F49F70223088F099239E
:1027B00099F0F8019681907F79F4FE2C9ECF2A5FE4
:1027C0002F70223068F0C8010E94870DEF2CF5CFE2
:1027D000992311F0882389F3805E883070F3F3CF5A
:1027E000803F58F3815F833070F7E7CF80916701B6
:1027F000816080936701BECFC91207C090916101CB
:10280000D91203C0EE2009F48DC0C8010E94D20C79
:10281000882309F477CFEE2009F474CF8091670103
:10282000803288F0209161013091620139872887D8
:102830009B868A86909165019C871D868E87CE0136
:1028400008960E94870D87E0F801A1E6B1E00190AB
:102850000D928A95E1F70E94EB1257CF9091670194
:10286000292F207F51F481E691E00E94870D87E0B7
:10287000F50111928A95E9F77DCF882309F43DCFC0
:10288000809162018C1110C080916101D8120CC03E
:10289000E1100AC09683C8010E94870D87E0F50108
:1028A00011928A95E9F729CFC8010E94D20C88239A
:1028B00009F428CFEE2009F425CF809167018032FA
:1028C00010F220916101309162013A8329839C8248
:1028D0008B82909165019D831E828F83CE0101962C
:1028E000B0CF483C5105D0F6882309F40ECFFE2C1A
:1028F000EE2009F407CF809162018C1120C08091F5
:102900006101D8121CC08091670180FD0FC0982F13
:10291000907F61F08683903F31F0982F907F905F99
:102920008F70892B8683C8010E94870D87E0F8018C
:10293000A1E6B1E001900D928A95E1F7DECEC801E3
:102940000E94D20C81117FCF8091670181608093BA
:102950006701C8010E94870DD0CEABE1B0E0E3EB88
:10296000F4E10C94E91A4E8B5F8B688F798F8A8F14
:102970009B8F192F911110926A011D8A86E0FE012A
:102980007696DE011F9601900D928A95E1F70A8DE9
:10299000002341F021E04F85588969897A89C8016F
:1029A0000E94F50C0B8B1C8B87E0FE013F96DE012D
:1029B000189601900D928A95E1F7CE0108960E9433
:1029C000461381110CC087E0FE013896DE01119696
:1029D00001900D928A95E1F78C8581110BC017E06B
:1029E00080918E0290915502891331C06B96E4E07C
:1029F0000C94051B2091550230E0C90101968770A7
:102A0000992740918E024817190699F097E0929FF6
:102A1000D001939FB00D1124AA5ABD4FFE013196EB
:102A200001900D929A95E1F7809355020E94160746
:102A3000D6CF0E944A0D1092550210928E0287E066
:102A4000E1E6F1E0DF011D928A95E9F7C8CF819FA9
:102A5000C00111248A5A9D4F0E944613882331F2E7
:102A600080918E0290E001968770992780938E0264
:102A7000B7CFA6E0B0E0EFE3F5E10C94E91A0E94CD
:102A8000A0038C0180916C0190916D0180179107DA
:102A900081F019821A820E94A003682F49815A810D
:102AA000792F80E090E00E94AD1410936D010093A7
:102AB0006C012696E4E00C94051BA5E0B0E0E3E68B
:102AC000F5E10C94E21A8E010F5F1F4F85E0F801CB
:102AD00011928A95E9F783E4C82E81E0D82EF12C73
:102AE000E12CAA24A394B12CF60181916F018F3FB0
:102AF00009F443C0F894E82FE295EF70F0E021A1CB
:102B00008F70A50102C0440F551F8A95E2F7CA01D4
:102B1000922F982B91A392A18095892382A37894D8
:102B200000C0E8E4F1E0912C31E021912F3F09F45D
:102B300065C0A22FA295AF70B0E090968C9190E006
:102B40002F7002C0959587952A95E2F780FD56C0B3
:102B5000832F982A330F51E0EC34F50731F7F60153
:102B6000319780818F3F11F00E94BF0480EA8A95DF
:102B7000F1F7F801EE0DFF1D9082EFEFEE1AFE0A5D
:102B8000F5E0EF16F10409F0AFCF45E050E0B801F1
:102B900081E791E00E94261B892B91F185E0F801E5
:102BA000A1E7B1E001900D928A95E1F781E0809371
:102BB00070010E94A00390936F0180936E01809139
:102BC0006E0190916F010E9491030597E8F045E036
:102BD00050E061E771E081E891E00E94261B892BBB
:102BE000C1F085E0E1E7F1E0A1E8B1E001900D92EC
:102BF0008A95E1F781E01092700107C080E0A9CFCB
:102C0000809170018111DBCF80E02596EBE00C9480
:102C1000FE1A80E0F0CF78941F921FB61F92112405
:102C20008F939F93AF93BF9380919D0190919E014D
:102C3000A0919F01B091A0010196A11DB11D8093AB
:102C40009D0190939E01A0939F01B093A001BF911D
:102C5000AF919F918F911F901FBE1F9018951F924B
:102C60001FB61F9211248F939F93AF93BF938091B0
:102C70009B01811113C080919D0190919E01A091B3
:102C80009F01B091A0014196A11DB11D80939D01AE
:102C900090939E01A0939F01B093A001BF91AF912B
:102CA0009F918F911F901FBE1F901895CDB7DEB7D3
:102CB0002E970FB6F894DEBF0FBECDBF0E94A003C3
:102CC000909387018093860180E890E00FB6F89496
:102CD00080936100909361000FBE8DEB94E0909320
:102CE0004D0180934C018091690088608093690058
:102CF000E99A8BE480939E028093D3028093AA0288
:102D00008AE580939D028093D2028093A902539A10
:102D100080E0815009F01FC15398789482E084BD0F
:102D200093E095BD9AEF97BD80936E000E941A0DB7
:102D3000811102C00E94490C03E411E0E8E4EE2E88
:102D4000E1E0FE2EF80181918F018F3F11F00E948A
:102D5000BF04E016F106B1F780E60E94BF0481E6E9
:102D60000E94BF0482E60E94BF0483E60E94BF0463
:102D700085E0E1E8F1E0DF01282F1D922A95E9F7CF
:102D8000E1E7F1E0DF011D928A95E9F790E080E04C
:102D90000E943B1B863E9E4F21F40E941A0D81111A
:102DA00067C066EE7EEF90E080E00E946F1B60E0FF
:102DB00082E090E00E94511B60E083E090E00E947E
:102DC000511B1092760160E074E184E090E00E9473
:102DD0006F1B60E086E090E00E94511B6FEF87E080
:102DE00090E00E94511B40E050E0BA0188E090E082
:102DF0000E94631B60E084E290E00E94511B60E04F
:102E000087E190E00E94511B60E08CE090E00E941E
:102E1000511B60E08DE090E00E94511B19821A82E4
:102E20001B821C821D821E821F82188648E050E091
:102E300068E170E0CE0101960E94411B40E050E045
:102E4000BA0180E290E00E94631B80E00E94300C97
:102E50000E94490C40E050E0BA018FE090E00E94EF
:102E6000631B40E050E0BA0183E190E00E94631BE5
:102E700082E090E00E94331B80937A0184E090E02E
:102E80000E943B1B90937901809378010E945D150D
:102E9000EFEFF6E721E0E150F0402040E1F700C01D
:102EA00000000E945D158091810180FF08C06FEFD6
:102EB0007FEF90E080E00E946F1B0E947C0383E024
:102EC00090E00E94331B0E94DD0780E091E0909328
:102ED0009801809397014FEF80E792E04150804046
:102EE0009040E1F700C0000057E3552E60E8E62E61
:102EF00061E0F62EBB24B394AA24A39476E8C72EEF
:102F000071E0D72E8091B80210919C01882359F16D
:102F10001092B8020E94A0039093870180938601CB
:102F2000112309F4CEC210929C010E944A0D0E9406
:102F3000390480919C01882309F4C3C20E94AC0328
:102F40000E945D15E1E8F1E08191811184C2CE1605
:102F5000DF06D1F7D7CFA895AFE9BFE01197F1F71A
:102F600000C00000D6CE1111E9CF8091860190916A
:102F700087010E949103069708F4A3C2B0929C01B6
:102F80000E94AC03DBCF9813B9C20E94391586E0CA
:102F9000EFE8F1E0DE01119601900D928A95E1F7DC
:102FA0007090900100919101909092018090930116
:102FB000109194011092910110929201109293013C
:102FC00010929401802F892909F445C080918D01C8
:102FD00090918E010E9491039C0190918801992308
:102FE00009F46AC225313105B0F19F3F19F09F5FA6
:102FF00090938801002359F00E948F049FEF1016D0
:103000000CF491E0899F802D1124809391019920E7
:1030100059F00E948F0491E019140CF09FEF899FE2
:10302000802D11248093920180919101882399F041
:1030300060909201662079F00E94AF04882309F421
:10304000A8C080939101862D0E94AF04882309F4C3
:10305000A3C080939201812F882909F445C08091F3
:103060008B0190918C010E9491039C0190918901A8
:10307000992309F41CC221353105B0F19F3F19F0A5
:103080009F5F90938901882059F00E946D049FEF03
:1030900018140CF491E0899F802D112480939301E2
:1030A000112359F00E946D0491E011160CF09FEF6E
:1030B000899F802D1124809394018091930188230E
:1030C00099F080909401882079F00E94AF048823C1
:1030D00009F465C080939301882D0E94AF04882372
:1030E00009F460C08093940180919001871117C00A
:1030F00080919101882311F0081311C02091920151
:10310000222311F029110BC090919401992311F001
:10311000191305C030919301332309F4B6C10E94FD
:10312000460486E0FE013196AFE8B1E001900D92D1
:103130008A95E1F70E94390490918001891769F01E
:10314000809380018FB7F89440919D0150919E012A
:1031500060919F017091A0018FBF0E94E90A0E94B7
:10316000620980914D02882309F4CCCE8091A90296
:1031700084FFC8CE80914302803209F0C3CEE09133
:103180002302E150E33108F5F0E0E454F44E0C94EE
:10319000CE1AB092910157CFB09292015CCFB0920B
:1031A00093019ACFB09294019FCF109224028CE0A9
:1031B0008093250203E212E02DC180912402823027
:1031C00009F468C130F4813089F04FEF4093230255
:1031D000F1CF833009F18430C1F7109225021092AB
:1031E00026021092270210922802E4CF2FB7F894FB
:1031F00060919D0170919E0180919F019091A0012D
:103200002FBF0E94D41A60932502709326028093E8
:10321000270290932802CECF20912502822F90E0A2
:10322000E6E2F2E0245E8530910520F6DC01AF573E
:10323000BE4F3C91319301962813F5CFBBCF8091BF
:103240002402823021F0853009F4B4CFBECF6091E2
:1032500025027091260280912702909128020E94F7
:10326000D41A88E290E00E94511BA4CF409126021C
:1032700060912502809124020E94590C9827892789
:103280009827909328028093270294CF20912702B9
:10329000309128023227232732274091260260915D
:1032A0002502809124020E94CF0B84CF0E94F50B4F
:1032B00081CF80E1809324027DCF83E0809324023C
:1032C0005092250277CF00912402109125021027F9
:1032D0000127102733E2632E32E0732E80902602FE
:1032E000912CD401AD5DBD4F4D01C80187539F4F57
:1032F0006814790409F45ECF0733B3E01B0750F478
:103300000E94331BF30184830F5F1F4FBFEF6B1AC3
:103310007B0AEBCFD30114961C92F6CF00912402C6
:103320001091250210270127102723E2622E22E0A8
:10333000722E80902602800E912E911CC801875318
:103340009F4F0815190509F435CF0733E3E01E0731
:1033500028F4D30114966C910E94511BBFEF6B1A95
:103360007B0A0F5F1F4FEACF0E94BF0B23CFE4E021
:10337000E09324021FCF0091240210912502102710
:103380000127102793E2692E92E0792E8090260281
:10339000912CC4018D5D9D4F4C01C8018996861406
:1033A000970409F407CF003A110558F40E94331B23
:1033B000D30114968C930F5F1F4FFFEF6F1A7F0A94
:1033C000ECCFF3011482F7CF009124021091250273
:1033D00010270127102783E2682E82E0782E809044
:1033E0002602800E912E911CC801899680169106A6
:1033F00009F4E0CE003A110528F4D30114966C913B
:103400000E94511BBFEF6B1A7B0A0F5F1F4FECCF5F
:103410000E9462098091A90284FFFACF49EA52E032
:1034200068E0C8010E94AC0A085F1F4FE2E0033465
:103430001E0781F78091A90284FF0AC049EA52E081
:1034400060E090E080E00E94AC0A109243025ACD06
:103450000E946209EFCFF8942AB15B9A822F8C60A8
:103460008AB99BB13CE093279BB9FFE748E381E031
:10347000F15040408040E1F700C000008BB183274D
:103480008BB92AB95B9878943DCD822B892B09F4AE
:1034900048CE45CE88E290E00E94331B1092250270
:1034A00010922602109227028093280283CE2B309E
:1034B000310508F0E5CD18CE2B30310508F097CD59
:1034C000CACD0E94620980914D02882309F445CE3D
:1034D00080919D0284FF41CE0E945D150BE711E0B3
:1034E00041E8842E41E0942ED401F80191918D9110
:1034F000EE16FF0609F447CD9817C1F3712CD401DD
:103500006D904D01F80121908F01261419F12624A8
:10351000412C33243394832D8221A1F049867A866D
:103520000E94A0039C878B87AD8691E0832D862126
:1035300009F490E09E8749855A856B857C858D8549
:103540000E94AD144394330CF4E04F12E4CFF80121
:1035500031976082739425E07212D1CF8FB7F894BF
:1035600040919D0150919E0160919F017091A00139
:103570008FBF0DCD97FB072E16F4009407D077FD73
:1035800009D00E94121B07FC05D03EF4909581954E
:103590009F4F0895709561957F4F0895EE0FFF1F1F
:1035A0000590F491E02D09946927962769277827DB
:1035B0008727782708952F923F924F925F926F92BC
:1035C0007F928F929F92AF92BF92CF92DF92EF92B3
:1035D000FF920F931F93CF93DF93CDB7DEB7CA1B34
:1035E000DB0B0FB6F894DEBF0FBECDBF09942A885F
:1035F000398848885F846E847D848C849B84AA8407
:10360000B984C884DF80EE80FD800C811B81AA8193
:10361000B981CE0FD11D0FB6F894DEBF0FBECDBF5E
:10362000ED010895AA1BBB1B51E107C0AA1FBB1FD8
:10363000A617B70710F0A61BB70B881F991F5A953E
:10364000A9F780959095BC01CD010895FB01DC019F
:1036500004C08D910190801921F441505040C8F769
:10366000881B990B0895F999FECF92BD81BDF89AF8
:10367000992780B50895A8E1B0E042E050E00C94AD
:10368000771BDC01A40FB51F4150504048F0CB011F
:10369000840F951F2E910E94521B41505040D0F72D
:1036A0000895262FF999FECF92BD81BDF89A019712
:1036B00000B4021639F01FBA20BD0FB6F894FA9A7A
:1036C000F99A0FBE08950396272F0E94521B0E945D
:1036D000511B252F0E94521B242F0C94521B019624
:1036E000272F0E94521B0C94511BDC01CB01FC01C3
:1036F000F999FECF06C0F2BDE1BDF89A319600B44B
:103700000D9241505040B8F70895F894FFCFFB0E4A
:10371000FF0EF00EF70E030F070F0B0F851085102D
:10372000BF10BF1072118C11E810E8109111FE113A
:103730000F120F12480FBD0F500F1A0F1E0F540F0C
:10374000220F580F640F2E0FB60F320F680F360F6F
:103750006C0F940F3A0F700F9B0F400F760F7E0F78
:10376000260F5C0F2A0F600F440F7A0F8A0FA40FE9
:10377000B40F140F4C0FC40FD518DD181F193619CC
:1037800046195619E518E518E518E518E518591908
:0E3790005D1963198E19B419B719BB19E41924
:10379E007903180BD50ADF0AFF5A818283E200E90A
:1037AE0000EA00B500B600B700CD008301CC008A58
:1037BE0001920194012102230224022502260227EE
:1037CE00022A02B300B4006F0070009F01CB019F6C
:0C37DE0002A00231309796946061626393
:00000001FF
